{
  "contractName": "IssuersContract",
  "abi": [
    {
      "anonymous": false,
      "inputs": [
        {
          "indexed": false,
          "internalType": "bytes16",
          "name": "idType",
          "type": "bytes16"
        },
        {
          "indexed": false,
          "internalType": "address",
          "name": "signer",
          "type": "address"
        }
      ],
      "name": "AddIdType",
      "type": "event"
    },
    {
      "inputs": [
        {
          "internalType": "bytes16",
          "name": "idType",
          "type": "bytes16"
        }
      ],
      "name": "addIdType",
      "outputs": [
        {
          "internalType": "bool",
          "name": "",
          "type": "bool"
        }
      ],
      "stateMutability": "nonpayable",
      "type": "function"
    },
    {
      "inputs": [
        {
          "internalType": "bytes32",
          "name": "message",
          "type": "bytes32"
        },
        {
          "internalType": "bytes",
          "name": "signature",
          "type": "bytes"
        },
        {
          "internalType": "bytes16",
          "name": "idType",
          "type": "bytes16"
        }
      ],
      "name": "verifySignature",
      "outputs": [
        {
          "internalType": "bool",
          "name": "",
          "type": "bool"
        }
      ],
      "stateMutability": "view",
      "type": "function",
      "constant": true
    }
  ],
  "bytecode": "0x608060405234801561001057600080fd5b50610f3e806100206000396000f3fe608060405234801561001057600080fd5b50600436106100365760003560e01c80633b5b49071461003b578063dfce97d01461006b575b600080fd5b610055600480360381019061005091906107fc565b61009b565b6040516100629190610844565b60405180910390f35b610085600480360381019061008091906109db565b61021d565b6040516100929190610844565b60405180910390f35b6000806000836fffffffffffffffffffffffffffffffff19166fffffffffffffffffffffffffffffffff1916815260200190815260200160002060009054906101000a900473ffffffffffffffffffffffffffffffffffffffff1673ffffffffffffffffffffffffffffffffffffffff16600073ffffffffffffffffffffffffffffffffffffffff1614610164576040517f08c379a000000000000000000000000000000000000000000000000000000000815260040161015b90610aa7565b60405180910390fd5b33600080846fffffffffffffffffffffffffffffffff19166fffffffffffffffffffffffffffffffff1916815260200190815260200160002060006101000a81548173ffffffffffffffffffffffffffffffffffffffff021916908373ffffffffffffffffffffffffffffffffffffffff1602179055507fef4ffb989d46d193acb363c5fe5a6b5b0a7f11738293fa1d5ab2f3e49233721e823360405161020c929190610b17565b60405180910390a160019050919050565b6000806000836fffffffffffffffffffffffffffffffff19166fffffffffffffffffffffffffffffffff1916815260200190815260200160002060009054906101000a900473ffffffffffffffffffffffffffffffffffffffff1673ffffffffffffffffffffffffffffffffffffffff16600073ffffffffffffffffffffffffffffffffffffffff1614156102b5576000905061030c565b60006102c085610313565b905060006102ce8286610343565b90506102d98461036a565b73ffffffffffffffffffffffffffffffffffffffff168173ffffffffffffffffffffffffffffffffffffffff1614925050505b9392505050565b6000816040516020016103269190610bb8565b604051602081830303815290604052805190602001209050919050565b600080600061035285856103cc565b9150915061035f8161044f565b819250505092915050565b6000806000836fffffffffffffffffffffffffffffffff19166fffffffffffffffffffffffffffffffff1916815260200190815260200160002060009054906101000a900473ffffffffffffffffffffffffffffffffffffffff169050919050565b60008060418351141561040e5760008060006020860151925060408601519150606086015160001a905061040287828585610624565b94509450505050610448565b60408351141561043f576000806020850151915060408501519050610434868383610731565b935093505050610448565b60006002915091505b9250929050565b6000600481111561046357610462610bde565b5b81600481111561047657610475610bde565b5b141561048157610621565b6001600481111561049557610494610bde565b5b8160048111156104a8576104a7610bde565b5b14156104e9576040517f08c379a00000000000000000000000000000000000000000000000000000000081526004016104e090610c59565b60405180910390fd5b600260048111156104fd576104fc610bde565b5b8160048111156105105761050f610bde565b5b1415610551576040517f08c379a000000000000000000000000000000000000000000000000000000000815260040161054890610cc5565b60405180910390fd5b6003600481111561056557610564610bde565b5b81600481111561057857610577610bde565b5b14156105b9576040517f08c379a00000000000000000000000000000000000000000000000000000000081526004016105b090610d57565b60405180910390fd5b6004808111156105cc576105cb610bde565b5b8160048111156105df576105de610bde565b5b1415610620576040517f08c379a000000000000000000000000000000000000000000000000000000000815260040161061790610de9565b60405180910390fd5b5b50565b6000807f7fffffffffffffffffffffffffffffff5d576e7357a4501ddfe92f46681b20a08360001c111561065f576000600391509150610728565b601b8560ff16141580156106775750601c8560ff1614155b15610689576000600491509150610728565b6000600187878787604051600081526020016040526040516106ae9493929190610e34565b6020604051602081039080840390855afa1580156106d0573d6000803e3d6000fd5b505050602060405103519050600073ffffffffffffffffffffffffffffffffffffffff168173ffffffffffffffffffffffffffffffffffffffff16141561071f57600060019250925050610728565b80600092509250505b94509492505050565b60008060007f7fffffffffffffffffffffffffffffffffffffffffffffffffffffffffffffff60001b841690506000601b60ff8660001c901c6107749190610eb2565b905061078287828885610624565b935093505050935093915050565b6000604051905090565b600080fd5b600080fd5b60007fffffffffffffffffffffffffffffffff0000000000000000000000000000000082169050919050565b6107d9816107a4565b81146107e457600080fd5b50565b6000813590506107f6816107d0565b92915050565b6000602082840312156108125761081161079a565b5b6000610820848285016107e7565b91505092915050565b60008115159050919050565b61083e81610829565b82525050565b60006020820190506108596000830184610835565b92915050565b6000819050919050565b6108728161085f565b811461087d57600080fd5b50565b60008135905061088f81610869565b92915050565b600080fd5b600080fd5b6000601f19601f8301169050919050565b7f4e487b7100000000000000000000000000000000000000000000000000000000600052604160045260246000fd5b6108e88261089f565b810181811067ffffffffffffffff82111715610907576109066108b0565b5b80604052505050565b600061091a610790565b905061092682826108df565b919050565b600067ffffffffffffffff821115610946576109456108b0565b5b61094f8261089f565b9050602081019050919050565b82818337600083830152505050565b600061097e6109798461092b565b610910565b90508281526020810184848401111561099a5761099961089a565b5b6109a584828561095c565b509392505050565b600082601f8301126109c2576109c1610895565b5b81356109d284826020860161096b565b91505092915050565b6000806000606084860312156109f4576109f361079a565b5b6000610a0286828701610880565b935050602084013567ffffffffffffffff811115610a2357610a2261079f565b5b610a2f868287016109ad565b9250506040610a40868287016107e7565b9150509250925092565b600082825260208201905092915050565b7f69645479706520616c7265616479206578697374730000000000000000000000600082015250565b6000610a91601583610a4a565b9150610a9c82610a5b565b602082019050919050565b60006020820190508181036000830152610ac081610a84565b9050919050565b610ad0816107a4565b82525050565b600073ffffffffffffffffffffffffffffffffffffffff82169050919050565b6000610b0182610ad6565b9050919050565b610b1181610af6565b82525050565b6000604082019050610b2c6000830185610ac7565b610b396020830184610b08565b9392505050565b600081905092915050565b7f19457468657265756d205369676e6564204d6573736167653a0a333200000000600082015250565b6000610b81601c83610b40565b9150610b8c82610b4b565b601c82019050919050565b6000819050919050565b610bb2610bad8261085f565b610b97565b82525050565b6000610bc382610b74565b9150610bcf8284610ba1565b60208201915081905092915050565b7f4e487b7100000000000000000000000000000000000000000000000000000000600052602160045260246000fd5b7f45434453413a20696e76616c6964207369676e61747572650000000000000000600082015250565b6000610c43601883610a4a565b9150610c4e82610c0d565b602082019050919050565b60006020820190508181036000830152610c7281610c36565b9050919050565b7f45434453413a20696e76616c6964207369676e6174757265206c656e67746800600082015250565b6000610caf601f83610a4a565b9150610cba82610c79565b602082019050919050565b60006020820190508181036000830152610cde81610ca2565b9050919050565b7f45434453413a20696e76616c6964207369676e6174757265202773272076616c60008201527f7565000000000000000000000000000000000000000000000000000000000000602082015250565b6000610d41602283610a4a565b9150610d4c82610ce5565b604082019050919050565b60006020820190508181036000830152610d7081610d34565b9050919050565b7f45434453413a20696e76616c6964207369676e6174757265202776272076616c60008201527f7565000000000000000000000000000000000000000000000000000000000000602082015250565b6000610dd3602283610a4a565b9150610dde82610d77565b604082019050919050565b60006020820190508181036000830152610e0281610dc6565b9050919050565b610e128161085f565b82525050565b600060ff82169050919050565b610e2e81610e18565b82525050565b6000608082019050610e496000830187610e09565b610e566020830186610e25565b610e636040830185610e09565b610e706060830184610e09565b95945050505050565b6000819050919050565b7f4e487b7100000000000000000000000000000000000000000000000000000000600052601160045260246000fd5b6000610ebd82610e79565b9150610ec883610e79565b9250827fffffffffffffffffffffffffffffffffffffffffffffffffffffffffffffffff03821115610efd57610efc610e83565b5b82820190509291505056fea2646970667358221220c7db79376d834339cfed7820d954bf65fde7b52072923bdcbdd2f5f9b8b780e764736f6c634300080c0033",
  "immutableReferences": {},
  "source": "// SPDX-License-Identifier: Apache License Version 2.0\npragma solidity ^0.8.0;\n\nimport \"@openzeppelin/contracts/utils/cryptography/ECDSA.sol\";\n\ncontract IssuersContract {\n    // Mapping UIDs to issuer public keys\n    mapping(bytes16 => address) idTypes;\n\n    event AddIdType(\n      bytes16 idType,\n      address signer\n    );\n\n    // Creates a new signer for ID type\n    function addIdType(bytes16 idType) public returns (bool) {\n        // Check if id type already exists\n        require(address(0) == idTypes[idType], \"idType already exists\");\n        idTypes[idType] = msg.sender;\n        emit AddIdType(idType, msg.sender);\n        return true;\n    }\n\n    // For logging\n    // event VerifyHash(\n    //   bytes32 message,\n    //   bytes signature,\n    //   bytes16 idType,\n    //   bytes32 ethMessageHash,\n    //   address recoveredSigner\n    // );\n\n    // Verify a signature for an idType.\n    function verifySignature(\n        bytes32 message,\n        bytes memory signature,\n        bytes16 idType\n    ) public view returns (bool) {\n        if (address(0) == idTypes[idType]) return false;\n        bytes32 hash = ECDSA.toEthSignedMessageHash(message);\n        address signer = ECDSA.recover(hash, signature);\n        // emit VerifyHash(idHash, signature, idType, hash, signer);\n        return signer == getSigner(idType);\n    }\n\n    // Get the public key for an ID type\n    function getSigner(bytes16 idType) internal view returns (address) {\n        return idTypes[idType];\n    }\n}\n",
  "sourcePath": "/Users/areebbeigh/Documents/GitHub/mine/smart-contracts/contracts/IssuersContract.sol",
  "compiler": {
    "name": "solc",
    "version": "0.8.12+commit.f00d7308.Emscripten.clang"
  },
  "schemaVersion": "3.4.5",
  "updatedAt": "2022-03-05T09:32:05.590Z",
  "networkType": "ethereum",
  "devdoc": {
    "kind": "dev",
    "methods": {},
    "version": 1
  },
  "userdoc": {
    "kind": "user",
    "methods": {},
    "version": 1
  }
}